{
  "contractName": "ERC721",
  "abi": [
    {
      "inputs": [],
      "stateMutability": "nonpayable",
      "type": "constructor"
    },
    {
      "anonymous": false,
      "inputs": [
        {
          "indexed": true,
          "internalType": "address",
          "name": "owner",
          "type": "address"
        },
        {
          "indexed": true,
          "internalType": "address",
          "name": "operator",
          "type": "address"
        },
        {
          "indexed": true,
          "internalType": "uint256",
          "name": "tokenID",
          "type": "uint256"
        }
      ],
      "name": "Approval",
      "type": "event"
    },
    {
      "anonymous": false,
      "inputs": [
        {
          "indexed": true,
          "internalType": "address",
          "name": "owner",
          "type": "address"
        },
        {
          "indexed": true,
          "internalType": "address",
          "name": "operator",
          "type": "address"
        },
        {
          "indexed": false,
          "internalType": "bool",
          "name": "approved",
          "type": "bool"
        }
      ],
      "name": "ApprovalForAll",
      "type": "event"
    },
    {
      "anonymous": false,
      "inputs": [
        {
          "indexed": true,
          "internalType": "address",
          "name": "previousOwner",
          "type": "address"
        },
        {
          "indexed": true,
          "internalType": "address",
          "name": "newOwner",
          "type": "address"
        }
      ],
      "name": "OwnershipTransferred",
      "type": "event"
    },
    {
      "anonymous": false,
      "inputs": [
        {
          "indexed": true,
          "internalType": "address",
          "name": "from",
          "type": "address"
        },
        {
          "indexed": true,
          "internalType": "address",
          "name": "to",
          "type": "address"
        },
        {
          "indexed": true,
          "internalType": "uint256",
          "name": "tokenID",
          "type": "uint256"
        }
      ],
      "name": "Transfer",
      "type": "event"
    },
    {
      "inputs": [],
      "name": "owner",
      "outputs": [
        {
          "internalType": "address",
          "name": "",
          "type": "address"
        }
      ],
      "stateMutability": "view",
      "type": "function"
    },
    {
      "inputs": [],
      "name": "renounceOwnership",
      "outputs": [],
      "stateMutability": "nonpayable",
      "type": "function"
    },
    {
      "inputs": [
        {
          "internalType": "address",
          "name": "newOwner",
          "type": "address"
        }
      ],
      "name": "transferOwnership",
      "outputs": [],
      "stateMutability": "nonpayable",
      "type": "function"
    },
    {
      "inputs": [
        {
          "internalType": "uint256",
          "name": "tokenID",
          "type": "uint256"
        }
      ],
      "name": "tokenURI",
      "outputs": [
        {
          "internalType": "string",
          "name": "",
          "type": "string"
        }
      ],
      "stateMutability": "view",
      "type": "function"
    },
    {
      "inputs": [],
      "name": "name",
      "outputs": [
        {
          "internalType": "string",
          "name": "",
          "type": "string"
        }
      ],
      "stateMutability": "view",
      "type": "function"
    },
    {
      "inputs": [],
      "name": "symbol",
      "outputs": [
        {
          "internalType": "string",
          "name": "",
          "type": "string"
        }
      ],
      "stateMutability": "view",
      "type": "function"
    },
    {
      "inputs": [],
      "name": "contractBalance",
      "outputs": [
        {
          "internalType": "uint256",
          "name": "",
          "type": "uint256"
        }
      ],
      "stateMutability": "view",
      "type": "function"
    },
    {
      "inputs": [
        {
          "internalType": "address",
          "name": "owner",
          "type": "address"
        }
      ],
      "name": "balanceOf",
      "outputs": [
        {
          "internalType": "uint256",
          "name": "",
          "type": "uint256"
        }
      ],
      "stateMutability": "view",
      "type": "function"
    },
    {
      "inputs": [
        {
          "internalType": "uint256",
          "name": "tokenID",
          "type": "uint256"
        }
      ],
      "name": "ownerOf",
      "outputs": [
        {
          "internalType": "address",
          "name": "",
          "type": "address"
        }
      ],
      "stateMutability": "view",
      "type": "function"
    },
    {
      "inputs": [
        {
          "internalType": "address",
          "name": "operator",
          "type": "address"
        },
        {
          "internalType": "uint256",
          "name": "tokenID",
          "type": "uint256"
        }
      ],
      "name": "approve",
      "outputs": [],
      "stateMutability": "nonpayable",
      "type": "function"
    },
    {
      "inputs": [
        {
          "internalType": "uint256",
          "name": "tokenID",
          "type": "uint256"
        }
      ],
      "name": "getApproved",
      "outputs": [
        {
          "internalType": "address",
          "name": "operator",
          "type": "address"
        }
      ],
      "stateMutability": "view",
      "type": "function"
    },
    {
      "inputs": [
        {
          "internalType": "address",
          "name": "operator",
          "type": "address"
        },
        {
          "internalType": "bool",
          "name": "approved",
          "type": "bool"
        }
      ],
      "name": "setApprovalForAll",
      "outputs": [],
      "stateMutability": "nonpayable",
      "type": "function"
    },
    {
      "inputs": [
        {
          "internalType": "address",
          "name": "owner",
          "type": "address"
        },
        {
          "internalType": "address",
          "name": "operator",
          "type": "address"
        }
      ],
      "name": "isApprovedForAll",
      "outputs": [
        {
          "internalType": "bool",
          "name": "",
          "type": "bool"
        }
      ],
      "stateMutability": "view",
      "type": "function"
    },
    {
      "inputs": [
        {
          "internalType": "address",
          "name": "operator",
          "type": "address"
        },
        {
          "internalType": "bool",
          "name": "unApproved",
          "type": "bool"
        }
      ],
      "name": "unsetApprovalForAll",
      "outputs": [],
      "stateMutability": "nonpayable",
      "type": "function"
    },
    {
      "inputs": [
        {
          "internalType": "address",
          "name": "from",
          "type": "address"
        },
        {
          "internalType": "address",
          "name": "to",
          "type": "address"
        },
        {
          "internalType": "uint256",
          "name": "tokenID",
          "type": "uint256"
        }
      ],
      "name": "transferFrom",
      "outputs": [],
      "stateMutability": "nonpayable",
      "type": "function"
    },
    {
      "inputs": [
        {
          "internalType": "address",
          "name": "from",
          "type": "address"
        },
        {
          "internalType": "address",
          "name": "to",
          "type": "address"
        },
        {
          "internalType": "uint256",
          "name": "tokenID",
          "type": "uint256"
        }
      ],
      "name": "safeTransferFrom",
      "outputs": [],
      "stateMutability": "nonpayable",
      "type": "function"
    },
    {
      "inputs": [
        {
          "internalType": "address",
          "name": "from",
          "type": "address"
        },
        {
          "internalType": "address",
          "name": "to",
          "type": "address"
        },
        {
          "internalType": "uint256",
          "name": "tokenID",
          "type": "uint256"
        },
        {
          "internalType": "bytes",
          "name": "data",
          "type": "bytes"
        }
      ],
      "name": "safeTransferFrom",
      "outputs": [],
      "stateMutability": "nonpayable",
      "type": "function"
    }
  ],
  "bytecode": "0x60806040523480156200001157600080fd5b506200002333620000c560201b60201c565b6040518060400160405280600b81526020017f5468654e4654546f6b656e000000000000000000000000000000000000000000815250600190805190602001906200007092919062000189565b506040518060400160405280600381526020017f544e54000000000000000000000000000000000000000000000000000000000081525060029080519060200190620000be92919062000189565b506200029e565b60008060009054906101000a900473ffffffffffffffffffffffffffffffffffffffff169050816000806101000a81548173ffffffffffffffffffffffffffffffffffffffff021916908373ffffffffffffffffffffffffffffffffffffffff1602179055508173ffffffffffffffffffffffffffffffffffffffff168173ffffffffffffffffffffffffffffffffffffffff167f8be0079c531659141344cd1fd0a4f28419497f9722a3daafe3b4186f6b6457e060405160405180910390a35050565b828054620001979062000239565b90600052602060002090601f016020900481019282620001bb576000855562000207565b82601f10620001d657805160ff191683800117855562000207565b8280016001018555821562000207579182015b8281111562000206578251825591602001919060010190620001e9565b5b5090506200021691906200021a565b5090565b5b80821115620002355760008160009055506001016200021b565b5090565b600060028204905060018216806200025257607f821691505b602082108114156200026957620002686200026f565b5b50919050565b7f4e487b7100000000000000000000000000000000000000000000000000000000600052602260045260246000fd5b61261c80620002ae6000396000f3fe608060405234801561001057600080fd5b506004361061010b5760003560e01c8063715018a6116100a2578063a22cb46511610071578063a22cb46514610292578063b88d4fde146102ae578063c87b56dd146102ca578063e985e9c5146102fa578063f2fde38b1461032a5761010b565b8063715018a61461022e5780638b7afe2e146102385780638da5cb5b1461025657806395d89b41146102745761010b565b806338d7e19e116100de57806338d7e19e1461019657806342842e0e146101b25780636352211e146101ce57806370a08231146101fe5761010b565b806306fdde0314610110578063081812fc1461012e578063095ea7b31461015e57806323b872dd1461017a575b600080fd5b610118610346565b6040516101259190611ef2565b60405180910390f35b61014860048036038101906101439190611cc0565b6103d8565b6040516101559190611ebc565b60405180910390f35b61017860048036038101906101739190611c84565b6104ba565b005b610194600480360381019061018f9190611b7e565b61068e565b005b6101b060048036038101906101ab9190611c48565b6107bf565b005b6101cc60048036038101906101c79190611b7e565b61092b565b005b6101e860048036038101906101e39190611cc0565b610a6c565b6040516101f59190611ebc565b60405180910390f35b61021860048036038101906102139190611b19565b610bc4565b6040516102259190612014565b60405180910390f35b610236610c7c565b005b610240610cfd565b60405161024d9190612014565b60405180910390f35b61025e610d05565b60405161026b9190611ebc565b60405180910390f35b61027c610d2e565b6040516102899190611ef2565b60405180910390f35b6102ac60048036038101906102a79190611c48565b610dc0565b005b6102c860048036038101906102c39190611bcd565b610f2c565b005b6102e460048036038101906102df9190611cc0565b61105e565b6040516102f19190611ef2565b60405180910390f35b610314600480360381019061030f9190611b42565b611070565b6040516103219190611ed7565b60405180910390f35b610344600480360381019061033f9190611b19565b611104565b005b606060018054610355906121f1565b80601f0160208091040260200160405190810160405280929190818152602001828054610381906121f1565b80156103ce5780601f106103a3576101008083540402835291602001916103ce565b820191906000526020600020905b8154815290600101906020018083116103b157829003601f168201915b5050505050905090565b600081600073ffffffffffffffffffffffffffffffffffffffff166005600083815260200190815260200160002060009054906101000a900473ffffffffffffffffffffffffffffffffffffffff1673ffffffffffffffffffffffffffffffffffffffff16141561047e576040517f08c379a000000000000000000000000000000000000000000000000000000000815260040161047590611fd4565b60405180910390fd5b6006600084815260200190815260200160002060009054906101000a900473ffffffffffffffffffffffffffffffffffffffff16915050919050565b80600073ffffffffffffffffffffffffffffffffffffffff166005600083815260200190815260200160002060009054906101000a900473ffffffffffffffffffffffffffffffffffffffff1673ffffffffffffffffffffffffffffffffffffffff16141561055e576040517f08c379a000000000000000000000000000000000000000000000000000000000815260040161055590611fd4565b60405180910390fd5b3383836005600082815260200190815260200160002060009054906101000a900473ffffffffffffffffffffffffffffffffffffffff1673ffffffffffffffffffffffffffffffffffffffff168373ffffffffffffffffffffffffffffffffffffffff16148061062c57506006600082815260200190815260200160002060009054906101000a900473ffffffffffffffffffffffffffffffffffffffff1673ffffffffffffffffffffffffffffffffffffffff168273ffffffffffffffffffffffffffffffffffffffff16145b8061063d575061063c8383611070565b5b61067c576040517f08c379a000000000000000000000000000000000000000000000000000000000815260040161067390611ff4565b60405180910390fd5b61068686866111f5565b505050505050565b8233826005600082815260200190815260200160002060009054906101000a900473ffffffffffffffffffffffffffffffffffffffff1673ffffffffffffffffffffffffffffffffffffffff168373ffffffffffffffffffffffffffffffffffffffff16148061075c57506006600082815260200190815260200160002060009054906101000a900473ffffffffffffffffffffffffffffffffffffffff1673ffffffffffffffffffffffffffffffffffffffff168273ffffffffffffffffffffffffffffffffffffffff16145b8061076d575061076c8383611070565b5b6107ac576040517f08c379a00000000000000000000000000000000000000000000000000000000081526004016107a390611ff4565b60405180910390fd5b6107b78686866112d9565b505050505050565b8173ffffffffffffffffffffffffffffffffffffffff163373ffffffffffffffffffffffffffffffffffffffff16141561082e576040517f08c379a000000000000000000000000000000000000000000000000000000000815260040161082590611f94565b60405180910390fd5b80600760003373ffffffffffffffffffffffffffffffffffffffff1673ffffffffffffffffffffffffffffffffffffffff16815260200190815260200160002060008473ffffffffffffffffffffffffffffffffffffffff1673ffffffffffffffffffffffffffffffffffffffff16815260200190815260200160002060006101000a81548160ff0219169083151502179055508173ffffffffffffffffffffffffffffffffffffffff163373ffffffffffffffffffffffffffffffffffffffff167f17307eab39ab6107e8899845ad3d59bd9653f200f220920489ca2b5937696c318360405161091f9190611ed7565b60405180910390a35050565b8233826005600082815260200190815260200160002060009054906101000a900473ffffffffffffffffffffffffffffffffffffffff1673ffffffffffffffffffffffffffffffffffffffff168373ffffffffffffffffffffffffffffffffffffffff1614806109f957506006600082815260200190815260200160002060009054906101000a900473ffffffffffffffffffffffffffffffffffffffff1673ffffffffffffffffffffffffffffffffffffffff168273ffffffffffffffffffffffffffffffffffffffff16145b80610a0a5750610a098383611070565b5b610a49576040517f08c379a0000000000000000000000000000000000000000000000000000000008152600401610a4090611ff4565b60405180910390fd5b610a6486868660405180602001604052806000815250610f2c565b505050505050565b600081600073ffffffffffffffffffffffffffffffffffffffff166005600083815260200190815260200160002060009054906101000a900473ffffffffffffffffffffffffffffffffffffffff1673ffffffffffffffffffffffffffffffffffffffff161415610b12576040517f08c379a0000000000000000000000000000000000000000000000000000000008152600401610b0990611fd4565b60405180910390fd5b60006005600085815260200190815260200160002060009054906101000a900473ffffffffffffffffffffffffffffffffffffffff169050600073ffffffffffffffffffffffffffffffffffffffff168173ffffffffffffffffffffffffffffffffffffffff161415610bba576040517f08c379a0000000000000000000000000000000000000000000000000000000008152600401610bb190611f54565b60405180910390fd5b8092505050919050565b60008073ffffffffffffffffffffffffffffffffffffffff168273ffffffffffffffffffffffffffffffffffffffff161415610c35576040517f08c379a0000000000000000000000000000000000000000000000000000000008152600401610c2c90611f74565b60405180910390fd5b600460008373ffffffffffffffffffffffffffffffffffffffff1673ffffffffffffffffffffffffffffffffffffffff168152602001908152602001600020549050919050565b3373ffffffffffffffffffffffffffffffffffffffff16610c9b610d05565b73ffffffffffffffffffffffffffffffffffffffff1614610cf1576040517f08c379a0000000000000000000000000000000000000000000000000000000008152600401610ce890611fb4565b60405180910390fd5b610cfb600061167a565b565b600047905090565b60008060009054906101000a900473ffffffffffffffffffffffffffffffffffffffff16905090565b606060028054610d3d906121f1565b80601f0160208091040260200160405190810160405280929190818152602001828054610d69906121f1565b8015610db65780601f10610d8b57610100808354040283529160200191610db6565b820191906000526020600020905b815481529060010190602001808311610d9957829003601f168201915b5050505050905090565b8173ffffffffffffffffffffffffffffffffffffffff163373ffffffffffffffffffffffffffffffffffffffff161415610e2f576040517f08c379a0000000000000000000000000000000000000000000000000000000008152600401610e2690611f94565b60405180910390fd5b80600760003373ffffffffffffffffffffffffffffffffffffffff1673ffffffffffffffffffffffffffffffffffffffff16815260200190815260200160002060008473ffffffffffffffffffffffffffffffffffffffff1673ffffffffffffffffffffffffffffffffffffffff16815260200190815260200160002060006101000a81548160ff0219169083151502179055508173ffffffffffffffffffffffffffffffffffffffff163373ffffffffffffffffffffffffffffffffffffffff167f17307eab39ab6107e8899845ad3d59bd9653f200f220920489ca2b5937696c3183604051610f209190611ed7565b60405180910390a35050565b8333836005600082815260200190815260200160002060009054906101000a900473ffffffffffffffffffffffffffffffffffffffff1673ffffffffffffffffffffffffffffffffffffffff168373ffffffffffffffffffffffffffffffffffffffff161480610ffa57506006600082815260200190815260200160002060009054906101000a900473ffffffffffffffffffffffffffffffffffffffff1673ffffffffffffffffffffffffffffffffffffffff168273ffffffffffffffffffffffffffffffffffffffff16145b8061100b575061100a8383611070565b5b61104a576040517f08c379a000000000000000000000000000000000000000000000000000000000815260040161104190611ff4565b60405180910390fd5b6110558787876112d9565b50505050505050565b60606110698261173e565b9050919050565b6000600760008473ffffffffffffffffffffffffffffffffffffffff1673ffffffffffffffffffffffffffffffffffffffff16815260200190815260200160002060008373ffffffffffffffffffffffffffffffffffffffff1673ffffffffffffffffffffffffffffffffffffffff16815260200190815260200160002060009054906101000a900460ff16905092915050565b3373ffffffffffffffffffffffffffffffffffffffff16611123610d05565b73ffffffffffffffffffffffffffffffffffffffff1614611179576040517f08c379a000000000000000000000000000000000000000000000000000000000815260040161117090611fb4565b60405180910390fd5b600073ffffffffffffffffffffffffffffffffffffffff168173ffffffffffffffffffffffffffffffffffffffff1614156111e9576040517f08c379a00000000000000000000000000000000000000000000000000000000081526004016111e090611f14565b60405180910390fd5b6111f28161167a565b50565b816006600083815260200190815260200160002060006101000a81548173ffffffffffffffffffffffffffffffffffffffff021916908373ffffffffffffffffffffffffffffffffffffffff160217905550808273ffffffffffffffffffffffffffffffffffffffff166005600084815260200190815260200160002060009054906101000a900473ffffffffffffffffffffffffffffffffffffffff1673ffffffffffffffffffffffffffffffffffffffff167f8c5be1e5ebec7d5bd14f71427d1e84f3dd0314c0f7b2291e5b200ac8c7c3b92560405160405180910390a45050565b8233826005600082815260200190815260200160002060009054906101000a900473ffffffffffffffffffffffffffffffffffffffff1673ffffffffffffffffffffffffffffffffffffffff168373ffffffffffffffffffffffffffffffffffffffff1614806113a757506006600082815260200190815260200160002060009054906101000a900473ffffffffffffffffffffffffffffffffffffffff1673ffffffffffffffffffffffffffffffffffffffff168273ffffffffffffffffffffffffffffffffffffffff16145b806113b857506113b78383611070565b5b6113f7576040517f08c379a00000000000000000000000000000000000000000000000000000000081526004016113ee90611ff4565b60405180910390fd5b83600073ffffffffffffffffffffffffffffffffffffffff166005600083815260200190815260200160002060009054906101000a900473ffffffffffffffffffffffffffffffffffffffff1673ffffffffffffffffffffffffffffffffffffffff16141561149b576040517f08c379a000000000000000000000000000000000000000000000000000000000815260040161149290611fd4565b60405180910390fd5b600073ffffffffffffffffffffffffffffffffffffffff168673ffffffffffffffffffffffffffffffffffffffff16141561150b576040517f08c379a000000000000000000000000000000000000000000000000000000000815260040161150290611f34565b60405180910390fd5b6115166000866111f5565b6001600460008973ffffffffffffffffffffffffffffffffffffffff1673ffffffffffffffffffffffffffffffffffffffff16815260200190815260200160002060008282546115669190612133565b925050819055506001600460008873ffffffffffffffffffffffffffffffffffffffff1673ffffffffffffffffffffffffffffffffffffffff16815260200190815260200160002060008282546115bd91906120ac565b92505081905550856005600087815260200190815260200160002060006101000a81548173ffffffffffffffffffffffffffffffffffffffff021916908373ffffffffffffffffffffffffffffffffffffffff160217905550848673ffffffffffffffffffffffffffffffffffffffff168873ffffffffffffffffffffffffffffffffffffffff167fddf252ad1be2c89b69c2b068fc378daa952ba7f163c4a11628f55a4df523b3ef60405160405180910390a450505050505050565b60008060009054906101000a900473ffffffffffffffffffffffffffffffffffffffff169050816000806101000a81548173ffffffffffffffffffffffffffffffffffffffff021916908373ffffffffffffffffffffffffffffffffffffffff1602179055508173ffffffffffffffffffffffffffffffffffffffff168173ffffffffffffffffffffffffffffffffffffffff167f8be0079c531659141344cd1fd0a4f28419497f9722a3daafe3b4186f6b6457e060405160405180910390a35050565b606081600073ffffffffffffffffffffffffffffffffffffffff166005600083815260200190815260200160002060009054906101000a900473ffffffffffffffffffffffffffffffffffffffff1673ffffffffffffffffffffffffffffffffffffffff1614156117e4576040517f08c379a00000000000000000000000000000000000000000000000000000000081526004016117db90611fd4565b60405180910390fd5b6000600380546117f3906121f1565b80601f016020809104026020016040519081016040528092919081815260200182805461181f906121f1565b801561186c5780601f106118415761010080835404028352916020019161186c565b820191906000526020600020905b81548152906001019060200180831161184f57829003601f168201915b50505050509050600081511161189157604051806020016040528060008152506118bc565b8061189b856118c5565b6040516020016118ac929190611e98565b6040516020818303038152906040525b92505050919050565b6060600082141561190d576040518060400160405280600181526020017f30000000000000000000000000000000000000000000000000000000000000008152509050611a6d565b600082905060005b6000821461193f57808061192890612254565b915050600a826119389190612102565b9150611915565b60008167ffffffffffffffff811115611981577f4e487b7100000000000000000000000000000000000000000000000000000000600052604160045260246000fd5b6040519080825280601f01601f1916602001820160405280156119b35781602001600182028036833780820191505090505b5090505b60008514611a66576001826119cc9190612133565b9150600a856119db919061229d565b60306119e791906120ac565b60f81b818381518110611a23577f4e487b7100000000000000000000000000000000000000000000000000000000600052603260045260246000fd5b60200101907effffffffffffffffffffffffffffffffffffffffffffffffffffffffffffff1916908160001a905350600a85611a5f9190612102565b94506119b7565b8093505050505b919050565b6000611a85611a8084612054565b61202f565b905082815260208101848484011115611a9d57600080fd5b611aa88482856121af565b509392505050565b600081359050611abf816125a1565b92915050565b600081359050611ad4816125b8565b92915050565b600082601f830112611aeb57600080fd5b8135611afb848260208601611a72565b91505092915050565b600081359050611b13816125cf565b92915050565b600060208284031215611b2b57600080fd5b6000611b3984828501611ab0565b91505092915050565b60008060408385031215611b5557600080fd5b6000611b6385828601611ab0565b9250506020611b7485828601611ab0565b9150509250929050565b600080600060608486031215611b9357600080fd5b6000611ba186828701611ab0565b9350506020611bb286828701611ab0565b9250506040611bc386828701611b04565b9150509250925092565b60008060008060808587031215611be357600080fd5b6000611bf187828801611ab0565b9450506020611c0287828801611ab0565b9350506040611c1387828801611b04565b925050606085013567ffffffffffffffff811115611c3057600080fd5b611c3c87828801611ada565b91505092959194509250565b60008060408385031215611c5b57600080fd5b6000611c6985828601611ab0565b9250506020611c7a85828601611ac5565b9150509250929050565b60008060408385031215611c9757600080fd5b6000611ca585828601611ab0565b9250506020611cb685828601611b04565b9150509250929050565b600060208284031215611cd257600080fd5b6000611ce084828501611b04565b91505092915050565b611cf281612167565b82525050565b611d0181612179565b82525050565b6000611d1282612085565b611d1c8185612090565b9350611d2c8185602086016121be565b611d358161238a565b840191505092915050565b6000611d4b82612085565b611d5581856120a1565b9350611d658185602086016121be565b80840191505092915050565b6000611d7e602683612090565b9150611d898261239b565b604082019050919050565b6000611da1602183612090565b9150611dac826123ea565b604082019050919050565b6000611dc4602983612090565b9150611dcf82612439565b604082019050919050565b6000611de7602983612090565b9150611df282612488565b604082019050919050565b6000611e0a601a83612090565b9150611e15826124d7565b602082019050919050565b6000611e2d602083612090565b9150611e3882612500565b602082019050919050565b6000611e50601f83612090565b9150611e5b82612529565b602082019050919050565b6000611e73602883612090565b9150611e7e82612552565b604082019050919050565b611e92816121a5565b82525050565b6000611ea48285611d40565b9150611eb08284611d40565b91508190509392505050565b6000602082019050611ed16000830184611ce9565b92915050565b6000602082019050611eec6000830184611cf8565b92915050565b60006020820190508181036000830152611f0c8184611d07565b905092915050565b60006020820190508181036000830152611f2d81611d71565b9050919050565b60006020820190508181036000830152611f4d81611d94565b9050919050565b60006020820190508181036000830152611f6d81611db7565b9050919050565b60006020820190508181036000830152611f8d81611dda565b9050919050565b60006020820190508181036000830152611fad81611dfd565b9050919050565b60006020820190508181036000830152611fcd81611e20565b9050919050565b60006020820190508181036000830152611fed81611e43565b9050919050565b6000602082019050818103600083015261200d81611e66565b9050919050565b60006020820190506120296000830184611e89565b92915050565b600061203961204a565b90506120458282612223565b919050565b6000604051905090565b600067ffffffffffffffff82111561206f5761206e61235b565b5b6120788261238a565b9050602081019050919050565b600081519050919050565b600082825260208201905092915050565b600081905092915050565b60006120b7826121a5565b91506120c2836121a5565b9250827fffffffffffffffffffffffffffffffffffffffffffffffffffffffffffffffff038211156120f7576120f66122ce565b5b828201905092915050565b600061210d826121a5565b9150612118836121a5565b925082612128576121276122fd565b5b828204905092915050565b600061213e826121a5565b9150612149836121a5565b92508282101561215c5761215b6122ce565b5b828203905092915050565b600061217282612185565b9050919050565b60008115159050919050565b600073ffffffffffffffffffffffffffffffffffffffff82169050919050565b6000819050919050565b82818337600083830152505050565b60005b838110156121dc5780820151818401526020810190506121c1565b838111156121eb576000848401525b50505050565b6000600282049050600182168061220957607f821691505b6020821081141561221d5761221c61232c565b5b50919050565b61222c8261238a565b810181811067ffffffffffffffff8211171561224b5761224a61235b565b5b80604052505050565b600061225f826121a5565b91507fffffffffffffffffffffffffffffffffffffffffffffffffffffffffffffffff821415612292576122916122ce565b5b600182019050919050565b60006122a8826121a5565b91506122b3836121a5565b9250826122c3576122c26122fd565b5b828206905092915050565b7f4e487b7100000000000000000000000000000000000000000000000000000000600052601160045260246000fd5b7f4e487b7100000000000000000000000000000000000000000000000000000000600052601260045260246000fd5b7f4e487b7100000000000000000000000000000000000000000000000000000000600052602260045260246000fd5b7f4e487b7100000000000000000000000000000000000000000000000000000000600052604160045260246000fd5b6000601f19601f8301169050919050565b7f4f776e61626c653a206e6577206f776e657220697320746865207a65726f206160008201527f6464726573730000000000000000000000000000000000000000000000000000602082015250565b7f72656365697069656e74206973206e6f7420612076616c69642061646472657360008201527f7300000000000000000000000000000000000000000000000000000000000000602082015250565b7f4552433732313a20636865636b696e6720746f6b656e494420666f72207a657260008201527f6f20616464726573730000000000000000000000000000000000000000000000602082015250565b7f4552433732313a20636865636b696e672062616c616e636520666f72207a657260008201527f6f20616464726573730000000000000000000000000000000000000000000000602082015250565b7f4552433732313a2063616c6c657220746f206170706f72766572000000000000600082015250565b7f4f776e61626c653a2063616c6c6572206973206e6f7420746865206f776e6572600082015250565b7f4552433732313a20746f6b656e494420646f6573206e6f742065786973747300600082015250565b7f4552433732313a2063616c6c6572206973206e6f7420612076616c696420617560008201527f74686f72697a6572000000000000000000000000000000000000000000000000602082015250565b6125aa81612167565b81146125b557600080fd5b50565b6125c181612179565b81146125cc57600080fd5b50565b6125d8816121a5565b81146125e357600080fd5b5056fea26469706673582212204c16244e3dc5ed237881a1e912567acf8a4bd6bf59f3a2263965828f63fbaf0464736f6c63430008040033",
  "immutableReferences": {},
  "source": "// SPDX-License-Identifier: MIT\n\npragma solidity ^0.8.4;\n\nimport \"./IERC721.sol\";\nimport \"./Strings.sol\";\nimport \"./Ownable.sol\";\n\ncontract ERC721 is IERC721, Ownable { \n    \n    using Strings for uint256;\n    \n    string private _name;\n    string private _symbol;\n    string internal baseURI_;\n    \n    mapping(address => uint256) private _balances;\n    mapping(uint256 => address) private _owners;\n    \n    mapping(uint256 => address) private _tokenApprovals;\n    mapping(address => mapping(address => bool)) private _operatorApprovals;\n \n    \n    \n    // ************************************************** // \n    \n    constructor () {\n        _name = \"TheNFTToken\";\n        _symbol = \"TNT\";\n    }\n    \n   \n   \n    // ************************************************** // \n    \n    modifier isExists(uint256 tokenID){\n        require(_owners[tokenID] != address(0),\"ERC721: tokenID does not exists\");\n        _;\n    }\n    \n    modifier isAuthorizer(address owner_, address operator,uint256 tokenID){\n        \n        require(\n            owner_ == _owners[tokenID] ||\n            operator == _tokenApprovals[tokenID] ||\n            isApprovedForAll(owner_, operator),\"ERC721: caller is not a valid authorizer\" );\n        _;\n    }\n    \n    \n    // ************************************************** //\n     \n    function tokenURI(uint256 tokenID)external view returns(string memory){\n      return  _tokenURI(tokenID) ;\n    } \n    \n    \n   function _tokenURI(uint256 tokenID)internal isExists(tokenID) view returns(string memory){\n        string memory baseURI  = baseURI_;\n        return bytes(baseURI).length > 0 ? string(abi.encodePacked(baseURI, tokenID.toString())) : \"\";\n    } \n     \n    \n    // ************************************************** // \n    \n    function name()public view returns(string memory){\n        return _name;\n    }\n    \n    function symbol()public view returns(string memory){\n        return _symbol;\n    }\n    \n    function contractBalance()public view returns(uint256){\n        return address(this).balance;\n    }\n    \n    \n    \n    \n    // ************************************************** // \n    \n    function balanceOf(address owner) external view virtual override returns(uint256){\n        require(owner != address(0),\"ERC721: checking balance for zero address\");\n        return _balances[owner];\n    }\n    \n    function ownerOf(uint256 tokenID) external view isExists(tokenID) virtual override returns(address){\n        address owner = _owners[tokenID];\n        require(owner != address(0),\"ERC721: checking tokenID for zero address\");\n        return owner; \n    }\n    \n    \n    \n     // ************************************************** // \n     \n    function approve(address operator, uint256 tokenID) external\n        isExists(tokenID)\n        isAuthorizer(msg.sender, operator, tokenID) virtual override {\n            _approve(operator, tokenID);\n    }\n    \n    function _approve(address operator, uint256 tokenID) internal virtual {\n       _tokenApprovals[tokenID] = operator;\n       emit Approval(_owners[tokenID], operator, tokenID);\n    }\n    \n    function getApproved(uint256 tokenID) external view\n        isExists(tokenID)\n        override returns(address operator) {\n            return _tokenApprovals[tokenID];\n    }\n    \n    \n    \n    // ************************************************** // \n    \n    function setApprovalForAll(address operator, bool approved) external override {\n        require(msg.sender != operator, \"ERC721: caller to apporver\");\n        \n        _operatorApprovals[msg.sender][operator] = approved;\n        emit ApprovalForAll (msg.sender, operator, approved);\n    }\n    \n    function isApprovedForAll(address owner, address operator)public view override returns(bool){\n        return _operatorApprovals[owner][operator];\n    }\n    \n    function unsetApprovalForAll(address operator, bool unApproved) external {\n        require(msg.sender != operator, \"ERC721: caller to apporver\");\n        \n        _operatorApprovals[msg.sender][operator] = unApproved;\n        emit ApprovalForAll (msg.sender, operator, unApproved);\n    }\n    \n    \n    \n     // ************************************************** // \n    \n     function transferFrom(\n        address from,\n        address to,\n        uint256 tokenID\n        )external override isAuthorizer (from, msg.sender, tokenID) {\n           \n           _transferFrom(from, to, tokenID); \n        }\n    \n    function safeTransferFrom(\n        address from,\n        address to,\n        uint256 tokenID\n        )external override isAuthorizer (from, msg.sender, tokenID) {\n           \n           safeTransferFrom(from, to, tokenID,\"\"); \n        }\n    \n    function safeTransferFrom(\n        address from,\n        address to,\n        uint256 tokenID,\n        bytes memory data\n        )public override isAuthorizer (from, msg.sender, tokenID) {\n          \n           _transferFrom(from, to, tokenID); \n        }\n    \n    function _transferFrom(\n        address from,\n        address to,\n        uint256 tokenID\n        )internal virtual\n        isAuthorizer (from, msg.sender, tokenID) \n        isExists(tokenID) {\n           \n           require(to != address(0),\"receipient is not a valid address\");\n           _approve(address(0),tokenID);\n           \n           _balances[from] -= 1;\n           _balances[to] += 1;\n           \n           _owners[tokenID] = to;\n           emit Transfer(from, to, tokenID);\n        }\n        \n        \n        \n        \n    // ************************************************** //     \n        \n     function _mint(address to, uint256 tokenID) internal virtual {\n         \n        require(to != address(0), \"ERC721: mint to the zero address\");\n        require(!(_owners[tokenID] != address(0)), \"ERC721: token already minted\");\n\n            _balances[to] += 1;\n            _owners[tokenID] = to;\n\n        emit Transfer(address(0), to, tokenID);\n        }\n        \n        \n        \n}",
  "sourcePath": "C:\\Users\\ASIM_PIAIC_BCC\\Desktop\\Assignment4_Q3\\contracts\\ERC721.sol",
  "compiler": {
    "name": "solc",
    "version": "0.8.4+commit.c7e474f2.Emscripten.clang"
  },
  "schemaVersion": "3.4.3",
  "updatedAt": "2021-09-04T17:41:22.676Z",
  "devdoc": {
    "kind": "dev",
    "methods": {},
    "version": 1
  },
  "userdoc": {
    "kind": "user",
    "methods": {},
    "version": 1
  }
}