{
  "contractName": "TheToken",
  "abi": [
    {
      "inputs": [],
      "stateMutability": "nonpayable",
      "type": "constructor"
    },
    {
      "anonymous": false,
      "inputs": [
        {
          "indexed": true,
          "internalType": "address",
          "name": "owner",
          "type": "address"
        },
        {
          "indexed": true,
          "internalType": "address",
          "name": "operator",
          "type": "address"
        },
        {
          "indexed": true,
          "internalType": "uint256",
          "name": "tokenID",
          "type": "uint256"
        }
      ],
      "name": "Approval",
      "type": "event"
    },
    {
      "anonymous": false,
      "inputs": [
        {
          "indexed": true,
          "internalType": "address",
          "name": "owner",
          "type": "address"
        },
        {
          "indexed": true,
          "internalType": "address",
          "name": "operator",
          "type": "address"
        },
        {
          "indexed": false,
          "internalType": "bool",
          "name": "approved",
          "type": "bool"
        }
      ],
      "name": "ApprovalForAll",
      "type": "event"
    },
    {
      "anonymous": false,
      "inputs": [
        {
          "indexed": true,
          "internalType": "address",
          "name": "previousOwner",
          "type": "address"
        },
        {
          "indexed": true,
          "internalType": "address",
          "name": "newOwner",
          "type": "address"
        }
      ],
      "name": "OwnershipTransferred",
      "type": "event"
    },
    {
      "anonymous": false,
      "inputs": [
        {
          "indexed": true,
          "internalType": "address",
          "name": "from",
          "type": "address"
        },
        {
          "indexed": true,
          "internalType": "address",
          "name": "to",
          "type": "address"
        },
        {
          "indexed": true,
          "internalType": "uint256",
          "name": "tokenID",
          "type": "uint256"
        }
      ],
      "name": "Transfer",
      "type": "event"
    },
    {
      "stateMutability": "payable",
      "type": "fallback",
      "payable": true
    },
    {
      "inputs": [
        {
          "internalType": "address",
          "name": "operator",
          "type": "address"
        },
        {
          "internalType": "uint256",
          "name": "tokenID",
          "type": "uint256"
        }
      ],
      "name": "approve",
      "outputs": [],
      "stateMutability": "nonpayable",
      "type": "function"
    },
    {
      "inputs": [
        {
          "internalType": "address",
          "name": "owner",
          "type": "address"
        }
      ],
      "name": "balanceOf",
      "outputs": [
        {
          "internalType": "uint256",
          "name": "",
          "type": "uint256"
        }
      ],
      "stateMutability": "view",
      "type": "function",
      "constant": true
    },
    {
      "inputs": [],
      "name": "contractBalance",
      "outputs": [
        {
          "internalType": "uint256",
          "name": "",
          "type": "uint256"
        }
      ],
      "stateMutability": "view",
      "type": "function",
      "constant": true
    },
    {
      "inputs": [],
      "name": "currentSupply",
      "outputs": [
        {
          "internalType": "uint256",
          "name": "",
          "type": "uint256"
        }
      ],
      "stateMutability": "view",
      "type": "function",
      "constant": true
    },
    {
      "inputs": [],
      "name": "fundRaised",
      "outputs": [
        {
          "internalType": "uint256",
          "name": "",
          "type": "uint256"
        }
      ],
      "stateMutability": "view",
      "type": "function",
      "constant": true
    },
    {
      "inputs": [
        {
          "internalType": "uint256",
          "name": "tokenID",
          "type": "uint256"
        }
      ],
      "name": "getApproved",
      "outputs": [
        {
          "internalType": "address",
          "name": "operator",
          "type": "address"
        }
      ],
      "stateMutability": "view",
      "type": "function",
      "constant": true
    },
    {
      "inputs": [
        {
          "internalType": "address",
          "name": "owner",
          "type": "address"
        },
        {
          "internalType": "address",
          "name": "operator",
          "type": "address"
        }
      ],
      "name": "isApprovedForAll",
      "outputs": [
        {
          "internalType": "bool",
          "name": "",
          "type": "bool"
        }
      ],
      "stateMutability": "view",
      "type": "function",
      "constant": true
    },
    {
      "inputs": [],
      "name": "lastTokenID",
      "outputs": [
        {
          "internalType": "uint256",
          "name": "",
          "type": "uint256"
        }
      ],
      "stateMutability": "view",
      "type": "function",
      "constant": true
    },
    {
      "inputs": [],
      "name": "name",
      "outputs": [
        {
          "internalType": "string",
          "name": "",
          "type": "string"
        }
      ],
      "stateMutability": "view",
      "type": "function",
      "constant": true
    },
    {
      "inputs": [],
      "name": "owner",
      "outputs": [
        {
          "internalType": "address",
          "name": "",
          "type": "address"
        }
      ],
      "stateMutability": "view",
      "type": "function",
      "constant": true
    },
    {
      "inputs": [
        {
          "internalType": "uint256",
          "name": "tokenID",
          "type": "uint256"
        }
      ],
      "name": "ownerOf",
      "outputs": [
        {
          "internalType": "address",
          "name": "",
          "type": "address"
        }
      ],
      "stateMutability": "view",
      "type": "function",
      "constant": true
    },
    {
      "inputs": [],
      "name": "renounceOwnership",
      "outputs": [],
      "stateMutability": "nonpayable",
      "type": "function"
    },
    {
      "inputs": [
        {
          "internalType": "address",
          "name": "from",
          "type": "address"
        },
        {
          "internalType": "address",
          "name": "to",
          "type": "address"
        },
        {
          "internalType": "uint256",
          "name": "tokenID",
          "type": "uint256"
        }
      ],
      "name": "safeTransferFrom",
      "outputs": [],
      "stateMutability": "nonpayable",
      "type": "function"
    },
    {
      "inputs": [
        {
          "internalType": "address",
          "name": "from",
          "type": "address"
        },
        {
          "internalType": "address",
          "name": "to",
          "type": "address"
        },
        {
          "internalType": "uint256",
          "name": "tokenID",
          "type": "uint256"
        },
        {
          "internalType": "bytes",
          "name": "data",
          "type": "bytes"
        }
      ],
      "name": "safeTransferFrom",
      "outputs": [],
      "stateMutability": "nonpayable",
      "type": "function"
    },
    {
      "inputs": [],
      "name": "saleStartTime",
      "outputs": [
        {
          "internalType": "uint256",
          "name": "",
          "type": "uint256"
        }
      ],
      "stateMutability": "view",
      "type": "function",
      "constant": true
    },
    {
      "inputs": [
        {
          "internalType": "address",
          "name": "operator",
          "type": "address"
        },
        {
          "internalType": "bool",
          "name": "approved",
          "type": "bool"
        }
      ],
      "name": "setApprovalForAll",
      "outputs": [],
      "stateMutability": "nonpayable",
      "type": "function"
    },
    {
      "inputs": [],
      "name": "symbol",
      "outputs": [
        {
          "internalType": "string",
          "name": "",
          "type": "string"
        }
      ],
      "stateMutability": "view",
      "type": "function",
      "constant": true
    },
    {
      "inputs": [
        {
          "internalType": "uint256",
          "name": "tokenID",
          "type": "uint256"
        }
      ],
      "name": "tokenURI",
      "outputs": [
        {
          "internalType": "string",
          "name": "",
          "type": "string"
        }
      ],
      "stateMutability": "view",
      "type": "function",
      "constant": true
    },
    {
      "inputs": [
        {
          "internalType": "address",
          "name": "from",
          "type": "address"
        },
        {
          "internalType": "address",
          "name": "to",
          "type": "address"
        },
        {
          "internalType": "uint256",
          "name": "tokenID",
          "type": "uint256"
        }
      ],
      "name": "transferFrom",
      "outputs": [],
      "stateMutability": "nonpayable",
      "type": "function"
    },
    {
      "inputs": [
        {
          "internalType": "address",
          "name": "newOwner",
          "type": "address"
        }
      ],
      "name": "transferOwnership",
      "outputs": [],
      "stateMutability": "nonpayable",
      "type": "function"
    },
    {
      "inputs": [
        {
          "internalType": "address",
          "name": "operator",
          "type": "address"
        },
        {
          "internalType": "bool",
          "name": "unApproved",
          "type": "bool"
        }
      ],
      "name": "unsetApprovalForAll",
      "outputs": [],
      "stateMutability": "nonpayable",
      "type": "function"
    },
    {
      "stateMutability": "payable",
      "type": "receive",
      "payable": true
    },
    {
      "inputs": [
        {
          "internalType": "uint256",
          "name": "_NFTPrice",
          "type": "uint256"
        }
      ],
      "name": "setNFTPrice",
      "outputs": [],
      "stateMutability": "nonpayable",
      "type": "function"
    },
    {
      "inputs": [],
      "name": "getNFTPrice",
      "outputs": [
        {
          "internalType": "uint256",
          "name": "",
          "type": "uint256"
        }
      ],
      "stateMutability": "view",
      "type": "function",
      "constant": true
    },
    {
      "inputs": [
        {
          "internalType": "string",
          "name": "BaseURI",
          "type": "string"
        }
      ],
      "name": "setBaseURI",
      "outputs": [],
      "stateMutability": "nonpayable",
      "type": "function"
    },
    {
      "inputs": [
        {
          "internalType": "address",
          "name": "to",
          "type": "address"
        }
      ],
      "name": "buyToken",
      "outputs": [
        {
          "internalType": "uint256",
          "name": "totalFunds",
          "type": "uint256"
        }
      ],
      "stateMutability": "payable",
      "type": "function",
      "payable": true
    },
    {
      "inputs": [],
      "name": "killingContract",
      "outputs": [
        {
          "internalType": "bool",
          "name": "",
          "type": "bool"
        }
      ],
      "stateMutability": "payable",
      "type": "function",
      "payable": true
    }
  ],
  "bytecode": "0x60806040523480156200001157600080fd5b5062000023336200011b60201b60201c565b6040518060400160405280600b81526020017f5468654e4654546f6b656e0000000000000000000000000000000000000000008152506001908051906020019062000070929190620001df565b506040518060400160405280600381526020017f544e54000000000000000000000000000000000000000000000000000000000081525060029080519060200190620000be929190620001df565b50600142620000ce91906200028f565b60088190555060b4600981905550600954600854620000ee91906200028f565b600a819055506005600c819055506000600d819055506000600e81905550600d546010819055506200038a565b60008060009054906101000a900473ffffffffffffffffffffffffffffffffffffffff169050816000806101000a81548173ffffffffffffffffffffffffffffffffffffffff021916908373ffffffffffffffffffffffffffffffffffffffff1602179055508173ffffffffffffffffffffffffffffffffffffffff168173ffffffffffffffffffffffffffffffffffffffff167f8be0079c531659141344cd1fd0a4f28419497f9722a3daafe3b4186f6b6457e060405160405180910390a35050565b828054620001ed90620002f6565b90600052602060002090601f0160209004810192826200021157600085556200025d565b82601f106200022c57805160ff19168380011785556200025d565b828001600101855582156200025d579182015b828111156200025c5782518255916020019190600101906200023f565b5b5090506200026c919062000270565b5090565b5b808211156200028b57600081600090555060010162000271565b5090565b60006200029c82620002ec565b9150620002a983620002ec565b9250827fffffffffffffffffffffffffffffffffffffffffffffffffffffffffffffffff03821115620002e157620002e06200032c565b5b828201905092915050565b6000819050919050565b600060028204905060018216806200030f57607f821691505b602082108114156200032657620003256200035b565b5b50919050565b7f4e487b7100000000000000000000000000000000000000000000000000000000600052601160045260246000fd5b7f4e487b7100000000000000000000000000000000000000000000000000000000600052602260045260246000fd5b61360b806200039a6000396000f3fe6080604052600436106101855760003560e01c8063771282f6116100d1578063a22cb4651161008a578063c87b56dd11610064578063c87b56dd1461054a578063e985e9c514610587578063f2fde38b146105c4578063fb107a4f146105ed5761018c565b8063a22cb465146104cd578063b88d4fde146104f6578063c71c0b401461051f5761018c565b8063771282f6146103c85780637e72fb52146103f357806381530b68146104235780638b7afe2e1461044c5780638da5cb5b1461047757806395d89b41146104a25761018c565b80633521bd7e1161013e57806355f804b31161011857806355f804b31461030e5780636352211e1461033757806370a0823114610374578063715018a6146103b15761018c565b80633521bd7e1461029157806338d7e19e146102bc57806342842e0e146102e55761018c565b806306fdde031461018e578063081812fc146101b9578063095ea7b3146101f65780631cbaee2d1461021f57806320bbdd1e1461024a57806323b872dd146102685761018c565b3661018c57005b005b34801561019a57600080fd5b506101a3610618565b6040516101b09190612b79565b60405180910390f35b3480156101c557600080fd5b506101e060048036038101906101db919061280c565b6106aa565b6040516101ed9190612b43565b60405180910390f35b34801561020257600080fd5b5061021d6004803603810190610218919061278f565b61078c565b005b34801561022b57600080fd5b50610234610960565b6040516102419190612dbb565b60405180910390f35b610252610966565b60405161025f9190612b5e565b60405180910390f35b34801561027457600080fd5b5061028f600480360381019061028a9190612689565b610aa5565b005b34801561029d57600080fd5b506102a6610bd6565b6040516102b39190612dbb565b60405180910390f35b3480156102c857600080fd5b506102e360048036038101906102de9190612753565b610bdc565b005b3480156102f157600080fd5b5061030c60048036038101906103079190612689565b610d48565b005b34801561031a57600080fd5b50610335600480360381019061033091906127cb565b610e89565b005b34801561034357600080fd5b5061035e6004803603810190610359919061280c565b610f18565b60405161036b9190612b43565b60405180910390f35b34801561038057600080fd5b5061039b60048036038101906103969190612624565b611070565b6040516103a89190612dbb565b60405180910390f35b3480156103bd57600080fd5b506103c6611128565b005b3480156103d457600080fd5b506103dd6111a9565b6040516103ea9190612dbb565b60405180910390f35b61040d60048036038101906104089190612624565b6111af565b60405161041a9190612dbb565b60405180910390f35b34801561042f57600080fd5b5061044a6004803603810190610445919061280c565b611440565b005b34801561045857600080fd5b506104616114d2565b60405161046e9190612dbb565b60405180910390f35b34801561048357600080fd5b5061048c6114da565b6040516104999190612b43565b60405180910390f35b3480156104ae57600080fd5b506104b7611503565b6040516104c49190612b79565b60405180910390f35b3480156104d957600080fd5b506104f460048036038101906104ef9190612753565b611595565b005b34801561050257600080fd5b5061051d600480360381019061051891906126d8565b611701565b005b34801561052b57600080fd5b50610534611833565b6040516105419190612dbb565b60405180910390f35b34801561055657600080fd5b50610571600480360381019061056c919061280c565b611839565b60405161057e9190612b79565b60405180910390f35b34801561059357600080fd5b506105ae60048036038101906105a9919061264d565b61184b565b6040516105bb9190612b5e565b60405180910390f35b3480156105d057600080fd5b506105eb60048036038101906105e69190612624565b6118df565b005b3480156105f957600080fd5b506106026119d0565b60405161060f9190612dbb565b60405180910390f35b60606001805461062790613023565b80601f016020809104026020016040519081016040528092919081815260200182805461065390613023565b80156106a05780601f10610675576101008083540402835291602001916106a0565b820191906000526020600020905b81548152906001019060200180831161068357829003601f168201915b5050505050905090565b600081600073ffffffffffffffffffffffffffffffffffffffff166005600083815260200190815260200160002060009054906101000a900473ffffffffffffffffffffffffffffffffffffffff1673ffffffffffffffffffffffffffffffffffffffff161415610750576040517f08c379a000000000000000000000000000000000000000000000000000000000815260040161074790612d3b565b60405180910390fd5b6006600084815260200190815260200160002060009054906101000a900473ffffffffffffffffffffffffffffffffffffffff16915050919050565b80600073ffffffffffffffffffffffffffffffffffffffff166005600083815260200190815260200160002060009054906101000a900473ffffffffffffffffffffffffffffffffffffffff1673ffffffffffffffffffffffffffffffffffffffff161415610830576040517f08c379a000000000000000000000000000000000000000000000000000000000815260040161082790612d3b565b60405180910390fd5b3383836005600082815260200190815260200160002060009054906101000a900473ffffffffffffffffffffffffffffffffffffffff1673ffffffffffffffffffffffffffffffffffffffff168373ffffffffffffffffffffffffffffffffffffffff1614806108fe57506006600082815260200190815260200160002060009054906101000a900473ffffffffffffffffffffffffffffffffffffffff1673ffffffffffffffffffffffffffffffffffffffff168273ffffffffffffffffffffffffffffffffffffffff16145b8061090f575061090e838361184b565b5b61094e576040517f08c379a000000000000000000000000000000000000000000000000000000000815260040161094590612d9b565b60405180910390fd5b61095886866119da565b505050505050565b60085481565b60003373ffffffffffffffffffffffffffffffffffffffff166109876114da565b73ffffffffffffffffffffffffffffffffffffffff16146109dd576040517f08c379a00000000000000000000000000000000000000000000000000000000081526004016109d490612cfb565b60405180910390fd5b600a544211610a21576040517f08c379a0000000000000000000000000000000000000000000000000000000008152600401610a1890612c7b565b60405180910390fd5b600f54610a2c6114da565b73ffffffffffffffffffffffffffffffffffffffff163073ffffffffffffffffffffffffffffffffffffffff167fddf252ad1be2c89b69c2b068fc378daa952ba7f163c4a11628f55a4df523b3ef60405160405180910390a4610a8d6114da565b73ffffffffffffffffffffffffffffffffffffffff16ff5b8233826005600082815260200190815260200160002060009054906101000a900473ffffffffffffffffffffffffffffffffffffffff1673ffffffffffffffffffffffffffffffffffffffff168373ffffffffffffffffffffffffffffffffffffffff161480610b7357506006600082815260200190815260200160002060009054906101000a900473ffffffffffffffffffffffffffffffffffffffff1673ffffffffffffffffffffffffffffffffffffffff168273ffffffffffffffffffffffffffffffffffffffff16145b80610b845750610b83838361184b565b5b610bc3576040517f08c379a0000000000000000000000000000000000000000000000000000000008152600401610bba90612d9b565b60405180910390fd5b610bce868686611abe565b505050505050565b60105481565b8173ffffffffffffffffffffffffffffffffffffffff163373ffffffffffffffffffffffffffffffffffffffff161415610c4b576040517f08c379a0000000000000000000000000000000000000000000000000000000008152600401610c4290612c5b565b60405180910390fd5b80600760003373ffffffffffffffffffffffffffffffffffffffff1673ffffffffffffffffffffffffffffffffffffffff16815260200190815260200160002060008473ffffffffffffffffffffffffffffffffffffffff1673ffffffffffffffffffffffffffffffffffffffff16815260200190815260200160002060006101000a81548160ff0219169083151502179055508173ffffffffffffffffffffffffffffffffffffffff163373ffffffffffffffffffffffffffffffffffffffff167f17307eab39ab6107e8899845ad3d59bd9653f200f220920489ca2b5937696c3183604051610d3c9190612b5e565b60405180910390a35050565b8233826005600082815260200190815260200160002060009054906101000a900473ffffffffffffffffffffffffffffffffffffffff1673ffffffffffffffffffffffffffffffffffffffff168373ffffffffffffffffffffffffffffffffffffffff161480610e1657506006600082815260200190815260200160002060009054906101000a900473ffffffffffffffffffffffffffffffffffffffff1673ffffffffffffffffffffffffffffffffffffffff168273ffffffffffffffffffffffffffffffffffffffff16145b80610e275750610e26838361184b565b5b610e66576040517f08c379a0000000000000000000000000000000000000000000000000000000008152600401610e5d90612d9b565b60405180910390fd5b610e8186868660405180602001604052806000815250611701565b505050505050565b3373ffffffffffffffffffffffffffffffffffffffff16610ea86114da565b73ffffffffffffffffffffffffffffffffffffffff1614610efe576040517f08c379a0000000000000000000000000000000000000000000000000000000008152600401610ef590612cfb565b60405180910390fd5b8060039080519060200190610f14929190612472565b5050565b600081600073ffffffffffffffffffffffffffffffffffffffff166005600083815260200190815260200160002060009054906101000a900473ffffffffffffffffffffffffffffffffffffffff1673ffffffffffffffffffffffffffffffffffffffff161415610fbe576040517f08c379a0000000000000000000000000000000000000000000000000000000008152600401610fb590612d3b565b60405180910390fd5b60006005600085815260200190815260200160002060009054906101000a900473ffffffffffffffffffffffffffffffffffffffff169050600073ffffffffffffffffffffffffffffffffffffffff168173ffffffffffffffffffffffffffffffffffffffff161415611066576040517f08c379a000000000000000000000000000000000000000000000000000000000815260040161105d90612c1b565b60405180910390fd5b8092505050919050565b60008073ffffffffffffffffffffffffffffffffffffffff168273ffffffffffffffffffffffffffffffffffffffff1614156110e1576040517f08c379a00000000000000000000000000000000000000000000000000000000081526004016110d890612c3b565b60405180910390fd5b600460008373ffffffffffffffffffffffffffffffffffffffff1673ffffffffffffffffffffffffffffffffffffffff168152602001908152602001600020549050919050565b3373ffffffffffffffffffffffffffffffffffffffff166111476114da565b73ffffffffffffffffffffffffffffffffffffffff161461119d576040517f08c379a000000000000000000000000000000000000000000000000000000000815260040161119490612cfb565b60405180910390fd5b6111a76000611e5f565b565b600e5481565b600042600854106111f5576040517f08c379a00000000000000000000000000000000000000000000000000000000081526004016111ec90612b9b565b60405180910390fd5b6000600b541161123a576040517f08c379a000000000000000000000000000000000000000000000000000000000815260040161123190612d7b565b60405180910390fd5b60006003805461124990613023565b90501161128b576040517f08c379a000000000000000000000000000000000000000000000000000000000815260040161128290612d1b565b60405180910390fd5b600a5442106112cf576040517f08c379a00000000000000000000000000000000000000000000000000000000081526004016112c690612d5b565b60405180910390fd5b600c54600e5410611315576040517f08c379a000000000000000000000000000000000000000000000000000000000815260040161130c90612cbb565b60405180910390fd5b600b54341480156113535750600073ffffffffffffffffffffffffffffffffffffffff163373ffffffffffffffffffffffffffffffffffffffff1614155b611392576040517f08c379a000000000000000000000000000000000000000000000000000000000815260040161138990612cdb565b60405180910390fd5b3073ffffffffffffffffffffffffffffffffffffffff166108fc349081150290604051600060405180830381858888f193505050501580156113d8573d6000803e3d6000fd5b5034600f546113e79190612e84565b600f819055506001600d60008282546114009190612e84565b92505081905550600d546010819055506001600e60008282546114239190612e84565b9250508190555061143682600d54611f23565b600f549050919050565b3373ffffffffffffffffffffffffffffffffffffffff1661145f6114da565b73ffffffffffffffffffffffffffffffffffffffff16146114b5576040517f08c379a00000000000000000000000000000000000000000000000000000000081526004016114ac90612cfb565b60405180910390fd5b670de0b6b3a7640000816114c99190612f0b565b600b8190555050565b600047905090565b60008060009054906101000a900473ffffffffffffffffffffffffffffffffffffffff16905090565b60606002805461151290613023565b80601f016020809104026020016040519081016040528092919081815260200182805461153e90613023565b801561158b5780601f106115605761010080835404028352916020019161158b565b820191906000526020600020905b81548152906001019060200180831161156e57829003601f168201915b5050505050905090565b8173ffffffffffffffffffffffffffffffffffffffff163373ffffffffffffffffffffffffffffffffffffffff161415611604576040517f08c379a00000000000000000000000000000000000000000000000000000000081526004016115fb90612c5b565b60405180910390fd5b80600760003373ffffffffffffffffffffffffffffffffffffffff1673ffffffffffffffffffffffffffffffffffffffff16815260200190815260200160002060008473ffffffffffffffffffffffffffffffffffffffff1673ffffffffffffffffffffffffffffffffffffffff16815260200190815260200160002060006101000a81548160ff0219169083151502179055508173ffffffffffffffffffffffffffffffffffffffff163373ffffffffffffffffffffffffffffffffffffffff167f17307eab39ab6107e8899845ad3d59bd9653f200f220920489ca2b5937696c31836040516116f59190612b5e565b60405180910390a35050565b8333836005600082815260200190815260200160002060009054906101000a900473ffffffffffffffffffffffffffffffffffffffff1673ffffffffffffffffffffffffffffffffffffffff168373ffffffffffffffffffffffffffffffffffffffff1614806117cf57506006600082815260200190815260200160002060009054906101000a900473ffffffffffffffffffffffffffffffffffffffff1673ffffffffffffffffffffffffffffffffffffffff168273ffffffffffffffffffffffffffffffffffffffff16145b806117e057506117df838361184b565b5b61181f576040517f08c379a000000000000000000000000000000000000000000000000000000000815260040161181690612d9b565b60405180910390fd5b61182a878787611abe565b50505050505050565b600f5481565b60606118448261213e565b9050919050565b6000600760008473ffffffffffffffffffffffffffffffffffffffff1673ffffffffffffffffffffffffffffffffffffffff16815260200190815260200160002060008373ffffffffffffffffffffffffffffffffffffffff1673ffffffffffffffffffffffffffffffffffffffff16815260200190815260200160002060009054906101000a900460ff16905092915050565b3373ffffffffffffffffffffffffffffffffffffffff166118fe6114da565b73ffffffffffffffffffffffffffffffffffffffff1614611954576040517f08c379a000000000000000000000000000000000000000000000000000000000815260040161194b90612cfb565b60405180910390fd5b600073ffffffffffffffffffffffffffffffffffffffff168173ffffffffffffffffffffffffffffffffffffffff1614156119c4576040517f08c379a00000000000000000000000000000000000000000000000000000000081526004016119bb90612bbb565b60405180910390fd5b6119cd81611e5f565b50565b6000600b54905090565b816006600083815260200190815260200160002060006101000a81548173ffffffffffffffffffffffffffffffffffffffff021916908373ffffffffffffffffffffffffffffffffffffffff160217905550808273ffffffffffffffffffffffffffffffffffffffff166005600084815260200190815260200160002060009054906101000a900473ffffffffffffffffffffffffffffffffffffffff1673ffffffffffffffffffffffffffffffffffffffff167f8c5be1e5ebec7d5bd14f71427d1e84f3dd0314c0f7b2291e5b200ac8c7c3b92560405160405180910390a45050565b8233826005600082815260200190815260200160002060009054906101000a900473ffffffffffffffffffffffffffffffffffffffff1673ffffffffffffffffffffffffffffffffffffffff168373ffffffffffffffffffffffffffffffffffffffff161480611b8c57506006600082815260200190815260200160002060009054906101000a900473ffffffffffffffffffffffffffffffffffffffff1673ffffffffffffffffffffffffffffffffffffffff168273ffffffffffffffffffffffffffffffffffffffff16145b80611b9d5750611b9c838361184b565b5b611bdc576040517f08c379a0000000000000000000000000000000000000000000000000000000008152600401611bd390612d9b565b60405180910390fd5b83600073ffffffffffffffffffffffffffffffffffffffff166005600083815260200190815260200160002060009054906101000a900473ffffffffffffffffffffffffffffffffffffffff1673ffffffffffffffffffffffffffffffffffffffff161415611c80576040517f08c379a0000000000000000000000000000000000000000000000000000000008152600401611c7790612d3b565b60405180910390fd5b600073ffffffffffffffffffffffffffffffffffffffff168673ffffffffffffffffffffffffffffffffffffffff161415611cf0576040517f08c379a0000000000000000000000000000000000000000000000000000000008152600401611ce790612bfb565b60405180910390fd5b611cfb6000866119da565b6001600460008973ffffffffffffffffffffffffffffffffffffffff1673ffffffffffffffffffffffffffffffffffffffff1681526020019081526020016000206000828254611d4b9190612f65565b925050819055506001600460008873ffffffffffffffffffffffffffffffffffffffff1673ffffffffffffffffffffffffffffffffffffffff1681526020019081526020016000206000828254611da29190612e84565b92505081905550856005600087815260200190815260200160002060006101000a81548173ffffffffffffffffffffffffffffffffffffffff021916908373ffffffffffffffffffffffffffffffffffffffff160217905550848673ffffffffffffffffffffffffffffffffffffffff168873ffffffffffffffffffffffffffffffffffffffff167fddf252ad1be2c89b69c2b068fc378daa952ba7f163c4a11628f55a4df523b3ef60405160405180910390a450505050505050565b60008060009054906101000a900473ffffffffffffffffffffffffffffffffffffffff169050816000806101000a81548173ffffffffffffffffffffffffffffffffffffffff021916908373ffffffffffffffffffffffffffffffffffffffff1602179055508173ffffffffffffffffffffffffffffffffffffffff168173ffffffffffffffffffffffffffffffffffffffff167f8be0079c531659141344cd1fd0a4f28419497f9722a3daafe3b4186f6b6457e060405160405180910390a35050565b600073ffffffffffffffffffffffffffffffffffffffff168273ffffffffffffffffffffffffffffffffffffffff161415611f93576040517f08c379a0000000000000000000000000000000000000000000000000000000008152600401611f8a90612c9b565b60405180910390fd5b600073ffffffffffffffffffffffffffffffffffffffff166005600083815260200190815260200160002060009054906101000a900473ffffffffffffffffffffffffffffffffffffffff1673ffffffffffffffffffffffffffffffffffffffff1614612035576040517f08c379a000000000000000000000000000000000000000000000000000000000815260040161202c90612bdb565b60405180910390fd5b6001600460008473ffffffffffffffffffffffffffffffffffffffff1673ffffffffffffffffffffffffffffffffffffffff16815260200190815260200160002060008282546120859190612e84565b92505081905550816005600083815260200190815260200160002060006101000a81548173ffffffffffffffffffffffffffffffffffffffff021916908373ffffffffffffffffffffffffffffffffffffffff160217905550808273ffffffffffffffffffffffffffffffffffffffff16600073ffffffffffffffffffffffffffffffffffffffff167fddf252ad1be2c89b69c2b068fc378daa952ba7f163c4a11628f55a4df523b3ef60405160405180910390a45050565b606081600073ffffffffffffffffffffffffffffffffffffffff166005600083815260200190815260200160002060009054906101000a900473ffffffffffffffffffffffffffffffffffffffff1673ffffffffffffffffffffffffffffffffffffffff1614156121e4576040517f08c379a00000000000000000000000000000000000000000000000000000000081526004016121db90612d3b565b60405180910390fd5b6000600380546121f390613023565b80601f016020809104026020016040519081016040528092919081815260200182805461221f90613023565b801561226c5780601f106122415761010080835404028352916020019161226c565b820191906000526020600020905b81548152906001019060200180831161224f57829003601f168201915b50505050509050600081511161229157604051806020016040528060008152506122bc565b8061229b856122c5565b6040516020016122ac929190612b1f565b6040516020818303038152906040525b92505050919050565b6060600082141561230d576040518060400160405280600181526020017f3000000000000000000000000000000000000000000000000000000000000000815250905061246d565b600082905060005b6000821461233f57808061232890613086565b915050600a826123389190612eda565b9150612315565b60008167ffffffffffffffff811115612381577f4e487b7100000000000000000000000000000000000000000000000000000000600052604160045260246000fd5b6040519080825280601f01601f1916602001820160405280156123b35781602001600182028036833780820191505090505b5090505b60008514612466576001826123cc9190612f65565b9150600a856123db91906130cf565b60306123e79190612e84565b60f81b818381518110612423577f4e487b7100000000000000000000000000000000000000000000000000000000600052603260045260246000fd5b60200101907effffffffffffffffffffffffffffffffffffffffffffffffffffffffffffff1916908160001a905350600a8561245f9190612eda565b94506123b7565b8093505050505b919050565b82805461247e90613023565b90600052602060002090601f0160209004810192826124a057600085556124e7565b82601f106124b957805160ff19168380011785556124e7565b828001600101855582156124e7579182015b828111156124e65782518255916020019190600101906124cb565b5b5090506124f491906124f8565b5090565b5b808211156125115760008160009055506001016124f9565b5090565b600061252861252384612dfb565b612dd6565b90508281526020810184848401111561254057600080fd5b61254b848285612fe1565b509392505050565b600061256661256184612e2c565b612dd6565b90508281526020810184848401111561257e57600080fd5b612589848285612fe1565b509392505050565b6000813590506125a081613590565b92915050565b6000813590506125b5816135a7565b92915050565b600082601f8301126125cc57600080fd5b81356125dc848260208601612515565b91505092915050565b600082601f8301126125f657600080fd5b8135612606848260208601612553565b91505092915050565b60008135905061261e816135be565b92915050565b60006020828403121561263657600080fd5b600061264484828501612591565b91505092915050565b6000806040838503121561266057600080fd5b600061266e85828601612591565b925050602061267f85828601612591565b9150509250929050565b60008060006060848603121561269e57600080fd5b60006126ac86828701612591565b93505060206126bd86828701612591565b92505060406126ce8682870161260f565b9150509250925092565b600080600080608085870312156126ee57600080fd5b60006126fc87828801612591565b945050602061270d87828801612591565b935050604061271e8782880161260f565b925050606085013567ffffffffffffffff81111561273b57600080fd5b612747878288016125bb565b91505092959194509250565b6000806040838503121561276657600080fd5b600061277485828601612591565b9250506020612785858286016125a6565b9150509250929050565b600080604083850312156127a257600080fd5b60006127b085828601612591565b92505060206127c18582860161260f565b9150509250929050565b6000602082840312156127dd57600080fd5b600082013567ffffffffffffffff8111156127f757600080fd5b612803848285016125e5565b91505092915050565b60006020828403121561281e57600080fd5b600061282c8482850161260f565b91505092915050565b61283e81612f99565b82525050565b61284d81612fab565b82525050565b600061285e82612e5d565b6128688185612e68565b9350612878818560208601612ff0565b612881816131bc565b840191505092915050565b600061289782612e5d565b6128a18185612e79565b93506128b1818560208601612ff0565b80840191505092915050565b60006128ca601b83612e68565b91506128d5826131cd565b602082019050919050565b60006128ed602683612e68565b91506128f8826131f6565b604082019050919050565b6000612910601c83612e68565b915061291b82613245565b602082019050919050565b6000612933602183612e68565b915061293e8261326e565b604082019050919050565b6000612956602983612e68565b9150612961826132bd565b604082019050919050565b6000612979602983612e68565b91506129848261330c565b604082019050919050565b600061299c601a83612e68565b91506129a78261335b565b602082019050919050565b60006129bf601a83612e68565b91506129ca82613384565b602082019050919050565b60006129e2602083612e68565b91506129ed826133ad565b602082019050919050565b6000612a05601283612e68565b9150612a10826133d6565b602082019050919050565b6000612a28601a83612e68565b9150612a33826133ff565b602082019050919050565b6000612a4b602083612e68565b9150612a5682613428565b602082019050919050565b6000612a6e602683612e68565b9150612a7982613451565b604082019050919050565b6000612a91601f83612e68565b9150612a9c826134a0565b602082019050919050565b6000612ab4601483612e68565b9150612abf826134c9565b602082019050919050565b6000612ad7602283612e68565b9150612ae2826134f2565b604082019050919050565b6000612afa602883612e68565b9150612b0582613541565b604082019050919050565b612b1981612fd7565b82525050565b6000612b2b828561288c565b9150612b37828461288c565b91508190509392505050565b6000602082019050612b586000830184612835565b92915050565b6000602082019050612b736000830184612844565b92915050565b60006020820190508181036000830152612b938184612853565b905092915050565b60006020820190508181036000830152612bb4816128bd565b9050919050565b60006020820190508181036000830152612bd4816128e0565b9050919050565b60006020820190508181036000830152612bf481612903565b9050919050565b60006020820190508181036000830152612c1481612926565b9050919050565b60006020820190508181036000830152612c3481612949565b9050919050565b60006020820190508181036000830152612c548161296c565b9050919050565b60006020820190508181036000830152612c748161298f565b9050919050565b60006020820190508181036000830152612c94816129b2565b9050919050565b60006020820190508181036000830152612cb4816129d5565b9050919050565b60006020820190508181036000830152612cd4816129f8565b9050919050565b60006020820190508181036000830152612cf481612a1b565b9050919050565b60006020820190508181036000830152612d1481612a3e565b9050919050565b60006020820190508181036000830152612d3481612a61565b9050919050565b60006020820190508181036000830152612d5481612a84565b9050919050565b60006020820190508181036000830152612d7481612aa7565b9050919050565b60006020820190508181036000830152612d9481612aca565b9050919050565b60006020820190508181036000830152612db481612aed565b9050919050565b6000602082019050612dd06000830184612b10565b92915050565b6000612de0612df1565b9050612dec8282613055565b919050565b6000604051905090565b600067ffffffffffffffff821115612e1657612e1561318d565b5b612e1f826131bc565b9050602081019050919050565b600067ffffffffffffffff821115612e4757612e4661318d565b5b612e50826131bc565b9050602081019050919050565b600081519050919050565b600082825260208201905092915050565b600081905092915050565b6000612e8f82612fd7565b9150612e9a83612fd7565b9250827fffffffffffffffffffffffffffffffffffffffffffffffffffffffffffffffff03821115612ecf57612ece613100565b5b828201905092915050565b6000612ee582612fd7565b9150612ef083612fd7565b925082612f0057612eff61312f565b5b828204905092915050565b6000612f1682612fd7565b9150612f2183612fd7565b9250817fffffffffffffffffffffffffffffffffffffffffffffffffffffffffffffffff0483118215151615612f5a57612f59613100565b5b828202905092915050565b6000612f7082612fd7565b9150612f7b83612fd7565b925082821015612f8e57612f8d613100565b5b828203905092915050565b6000612fa482612fb7565b9050919050565b60008115159050919050565b600073ffffffffffffffffffffffffffffffffffffffff82169050919050565b6000819050919050565b82818337600083830152505050565b60005b8381101561300e578082015181840152602081019050612ff3565b8381111561301d576000848401525b50505050565b6000600282049050600182168061303b57607f821691505b6020821081141561304f5761304e61315e565b5b50919050565b61305e826131bc565b810181811067ffffffffffffffff8211171561307d5761307c61318d565b5b80604052505050565b600061309182612fd7565b91507fffffffffffffffffffffffffffffffffffffffffffffffffffffffffffffffff8214156130c4576130c3613100565b5b600182019050919050565b60006130da82612fd7565b91506130e583612fd7565b9250826130f5576130f461312f565b5b828206905092915050565b7f4e487b7100000000000000000000000000000000000000000000000000000000600052601160045260246000fd5b7f4e487b7100000000000000000000000000000000000000000000000000000000600052601260045260246000fd5b7f4e487b7100000000000000000000000000000000000000000000000000000000600052602260045260246000fd5b7f4e487b7100000000000000000000000000000000000000000000000000000000600052604160045260246000fd5b6000601f19601f8301169050919050565b7f546865546f6b656e3a2073616c652079657420746f2073746172740000000000600082015250565b7f4f776e61626c653a206e6577206f776e657220697320746865207a65726f206160008201527f6464726573730000000000000000000000000000000000000000000000000000602082015250565b7f4552433732313a20746f6b656e20616c7265616479206d696e74656400000000600082015250565b7f72656365697069656e74206973206e6f7420612076616c69642061646472657360008201527f7300000000000000000000000000000000000000000000000000000000000000602082015250565b7f4552433732313a20636865636b696e6720746f6b656e494420666f72207a657260008201527f6f20616464726573730000000000000000000000000000000000000000000000602082015250565b7f4552433732313a20636865636b696e672062616c616e636520666f72207a657260008201527f6f20616464726573730000000000000000000000000000000000000000000000602082015250565b7f4552433732313a2063616c6c657220746f206170706f72766572000000000000600082015250565b7f546865546f6b656e3a2073616c6520696e2070726f6772657373000000000000600082015250565b7f4552433732313a206d696e7420746f20746865207a65726f2061646472657373600082015250565b7f4d617820537570706c7920616368697665640000000000000000000000000000600082015250565b7f546865546f6b656e3a20756e72657175697265642076616c7565000000000000600082015250565b7f4f776e61626c653a2063616c6c6572206973206e6f7420746865206f776e6572600082015250565b7f546865546f6b656e3a2062617365555249206e65656420746f2062652064656360008201527f6c65617265640000000000000000000000000000000000000000000000000000602082015250565b7f4552433732313a20746f6b656e494420646f6573206e6f742065786973747300600082015250565b7f546865546f6b656e3a2073616c6520656e646564000000000000000000000000600082015250565b7f546865546f6b656e3a204e4654207072696365206973206e6f7420796574207360008201527f6574000000000000000000000000000000000000000000000000000000000000602082015250565b7f4552433732313a2063616c6c6572206973206e6f7420612076616c696420617560008201527f74686f72697a6572000000000000000000000000000000000000000000000000602082015250565b61359981612f99565b81146135a457600080fd5b50565b6135b081612fab565b81146135bb57600080fd5b50565b6135c781612fd7565b81146135d257600080fd5b5056fea2646970667358221220ebd42f654dd3f71518382a8e3b6fcd604157f356dfd26d57aa6489465263c1ba64736f6c63430008040033",
  "immutableReferences": {},
  "source": "// SPDX-License-Identifier: MIT\n\n// Create an ERC721 Token with the following requirements\n\n// 1. user can only buy tokens when the sale is started\n// 2. the sale should be ended within 30 days\n// 3. the owner can set base URI\n// 4. the owner can set the price of NFT\n// 5. NFT minting hard limit is 100\n\n \n    // ************************************************** // \n\npragma solidity ^0.8.4;\n\nimport \"./ERC721.sol\";\n\n\ncontract TheToken is ERC721 { \n    \n    uint256 public saleStartTime;\n    uint256 internal salePeriod;\n    uint256 internal saleEndTime;\n    uint256 private NFTPrice;\n    uint256 internal NFTMaxSupply;\n    uint256 internal tokenID;\n    uint256 public currentSupply;\n    uint256 public fundRaised;\n    uint256 public lastTokenID;\n    \n     // ************************************************** // \n    \n    constructor() {\n        \n        saleStartTime = block.timestamp + 1;\n        salePeriod = 180;       /*  30 days --- consider 180 second for sake of practice */\n        saleEndTime = saleStartTime + salePeriod ;\n        NFTMaxSupply = 5;       /*  100 NFT --- consider 5NFT for practice only*/\n        tokenID = 0;\n        currentSupply = 0;\n        lastTokenID = tokenID;\n        \n    }\n\n    fallback() external payable {}\n    receive() external payable {}\n    \n    modifier isSaleStart(){\n        require(saleStartTime < block.timestamp, \"TheToken: sale yet to start\");\n        require(NFTPrice > 0,\"TheToken: NFT price is not yet set\");\n        require(bytes(baseURI_).length > 0,\"TheToken: baseURI need to be decleared\");\n        _;\n    }\n    \n     modifier isSaleEnd(){\n        require(block.timestamp < saleEndTime, \"TheToken: sale ended\");\n        _;\n    }\n    \n    modifier maxSupply(){\n        require(currentSupply < NFTMaxSupply ,\"Max Supply achived\");\n        _;\n    }   \n   \n   \n   \n   // ************************************************** // \n   \n   function setNFTPrice(uint256 _NFTPrice) public onlyOwner() {\n       NFTPrice = _NFTPrice * 10**18;       /*     1 ether   */\n    }\n   \n   function getNFTPrice() public view returns(uint256) {\n       return NFTPrice;\n    }\n   \n   \n   \n    // ************************************************** // \n   \n   function setBaseURI(string memory BaseURI) public onlyOwner() {\n       baseURI_ = BaseURI;          /*     https://my-json-server.typicode.com/asimro/NFTdata/tokens/    */\n    }\n   \n   \n   \n    // ************************************************** // \n        \n    function buyToken(address to) public payable\n        isSaleStart\n        isSaleEnd\n        maxSupply\n        returns(uint256 totalFunds){\n        \n        require(msg.value == NFTPrice && msg.sender != address(0),\"TheToken: unrequired value\");\n        \n        payable(address(this)).transfer(msg.value);\n        fundRaised = fundRaised + msg.value;\n        \n        tokenID += 1;\n        lastTokenID = tokenID;\n        currentSupply +=1;\n        _mint(to, tokenID);\n        \n        return fundRaised;\n    }\n\n\n     // ************************************************** // \n     \n    function killingContract()external payable onlyOwner() returns(bool){\n        require(block.timestamp > saleEndTime,\"TheToken: sale in progress\");\n        \n        emit Transfer(address(this), owner(), fundRaised);    \n        selfdestruct(payable(owner()));\n        return true;\n    }\n}\n    ",
  "sourcePath": "C:\\Users\\ASIM_PIAIC_BCC\\Desktop\\Assignment4_Q3\\contracts\\TheToken.sol",
  "compiler": {
    "name": "solc",
    "version": "0.8.4+commit.c7e474f2.Emscripten.clang"
  },
  "schemaVersion": "3.4.3",
  "updatedAt": "2021-09-04T17:41:45.690Z",
  "networkType": "ethereum",
  "devdoc": {
    "kind": "dev",
    "methods": {},
    "version": 1
  },
  "userdoc": {
    "kind": "user",
    "methods": {},
    "version": 1
  }
}